{
  "_format": "hh-sol-artifact-1",
  "contractName": "MyNFT",
  "sourceName": "contracts/Permit.sol",
  "abi": [
    {
      "inputs": [],
      "stateMutability": "nonpayable",
      "type": "constructor"
    },
    {
      "inputs": [
        {
          "internalType": "address",
          "name": "sender",
          "type": "address"
        },
        {
          "internalType": "uint256",
          "name": "tokenId",
          "type": "uint256"
        },
        {
          "internalType": "address",
          "name": "owner",
          "type": "address"
        }
      ],
      "name": "ERC721IncorrectOwner",
      "type": "error"
    },
    {
      "inputs": [
        {
          "internalType": "address",
          "name": "operator",
          "type": "address"
        },
        {
          "internalType": "uint256",
          "name": "tokenId",
          "type": "uint256"
        }
      ],
      "name": "ERC721InsufficientApproval",
      "type": "error"
    },
    {
      "inputs": [
        {
          "internalType": "address",
          "name": "approver",
          "type": "address"
        }
      ],
      "name": "ERC721InvalidApprover",
      "type": "error"
    },
    {
      "inputs": [
        {
          "internalType": "address",
          "name": "operator",
          "type": "address"
        }
      ],
      "name": "ERC721InvalidOperator",
      "type": "error"
    },
    {
      "inputs": [
        {
          "internalType": "address",
          "name": "owner",
          "type": "address"
        }
      ],
      "name": "ERC721InvalidOwner",
      "type": "error"
    },
    {
      "inputs": [
        {
          "internalType": "address",
          "name": "receiver",
          "type": "address"
        }
      ],
      "name": "ERC721InvalidReceiver",
      "type": "error"
    },
    {
      "inputs": [
        {
          "internalType": "address",
          "name": "sender",
          "type": "address"
        }
      ],
      "name": "ERC721InvalidSender",
      "type": "error"
    },
    {
      "inputs": [
        {
          "internalType": "uint256",
          "name": "tokenId",
          "type": "uint256"
        }
      ],
      "name": "ERC721NonexistentToken",
      "type": "error"
    },
    {
      "anonymous": false,
      "inputs": [
        {
          "indexed": true,
          "internalType": "address",
          "name": "owner",
          "type": "address"
        },
        {
          "indexed": true,
          "internalType": "address",
          "name": "approved",
          "type": "address"
        },
        {
          "indexed": true,
          "internalType": "uint256",
          "name": "tokenId",
          "type": "uint256"
        }
      ],
      "name": "Approval",
      "type": "event"
    },
    {
      "anonymous": false,
      "inputs": [
        {
          "indexed": true,
          "internalType": "address",
          "name": "owner",
          "type": "address"
        },
        {
          "indexed": true,
          "internalType": "address",
          "name": "operator",
          "type": "address"
        },
        {
          "indexed": false,
          "internalType": "bool",
          "name": "approved",
          "type": "bool"
        }
      ],
      "name": "ApprovalForAll",
      "type": "event"
    },
    {
      "anonymous": false,
      "inputs": [
        {
          "indexed": false,
          "internalType": "uint256",
          "name": "_fromTokenId",
          "type": "uint256"
        },
        {
          "indexed": false,
          "internalType": "uint256",
          "name": "_toTokenId",
          "type": "uint256"
        }
      ],
      "name": "BatchMetadataUpdate",
      "type": "event"
    },
    {
      "anonymous": false,
      "inputs": [
        {
          "indexed": false,
          "internalType": "uint256",
          "name": "_tokenId",
          "type": "uint256"
        }
      ],
      "name": "MetadataUpdate",
      "type": "event"
    },
    {
      "anonymous": false,
      "inputs": [
        {
          "indexed": true,
          "internalType": "address",
          "name": "from",
          "type": "address"
        },
        {
          "indexed": true,
          "internalType": "address",
          "name": "to",
          "type": "address"
        },
        {
          "indexed": true,
          "internalType": "uint256",
          "name": "tokenId",
          "type": "uint256"
        }
      ],
      "name": "Transfer",
      "type": "event"
    },
    {
      "inputs": [
        {
          "internalType": "address",
          "name": "to",
          "type": "address"
        },
        {
          "internalType": "uint256",
          "name": "tokenId",
          "type": "uint256"
        }
      ],
      "name": "approve",
      "outputs": [],
      "stateMutability": "nonpayable",
      "type": "function"
    },
    {
      "inputs": [
        {
          "internalType": "address",
          "name": "owner",
          "type": "address"
        }
      ],
      "name": "balanceOf",
      "outputs": [
        {
          "internalType": "uint256",
          "name": "",
          "type": "uint256"
        }
      ],
      "stateMutability": "view",
      "type": "function"
    },
    {
      "inputs": [
        {
          "internalType": "uint256",
          "name": "tokenId",
          "type": "uint256"
        }
      ],
      "name": "getApproved",
      "outputs": [
        {
          "internalType": "address",
          "name": "",
          "type": "address"
        }
      ],
      "stateMutability": "view",
      "type": "function"
    },
    {
      "inputs": [
        {
          "internalType": "address",
          "name": "owner",
          "type": "address"
        },
        {
          "internalType": "address",
          "name": "operator",
          "type": "address"
        }
      ],
      "name": "isApprovedForAll",
      "outputs": [
        {
          "internalType": "bool",
          "name": "",
          "type": "bool"
        }
      ],
      "stateMutability": "view",
      "type": "function"
    },
    {
      "inputs": [],
      "name": "name",
      "outputs": [
        {
          "internalType": "string",
          "name": "",
          "type": "string"
        }
      ],
      "stateMutability": "view",
      "type": "function"
    },
    {
      "inputs": [
        {
          "internalType": "uint256",
          "name": "tokenId",
          "type": "uint256"
        }
      ],
      "name": "ownerOf",
      "outputs": [
        {
          "internalType": "address",
          "name": "",
          "type": "address"
        }
      ],
      "stateMutability": "view",
      "type": "function"
    },
    {
      "inputs": [
        {
          "internalType": "address",
          "name": "to",
          "type": "address"
        }
      ],
      "name": "safeMint",
      "outputs": [],
      "stateMutability": "nonpayable",
      "type": "function"
    },
    {
      "inputs": [
        {
          "internalType": "address",
          "name": "from",
          "type": "address"
        },
        {
          "internalType": "address",
          "name": "to",
          "type": "address"
        },
        {
          "internalType": "uint256",
          "name": "tokenId",
          "type": "uint256"
        }
      ],
      "name": "safeTransferFrom",
      "outputs": [],
      "stateMutability": "nonpayable",
      "type": "function"
    },
    {
      "inputs": [
        {
          "internalType": "address",
          "name": "from",
          "type": "address"
        },
        {
          "internalType": "address",
          "name": "to",
          "type": "address"
        },
        {
          "internalType": "uint256",
          "name": "tokenId",
          "type": "uint256"
        },
        {
          "internalType": "bytes",
          "name": "data",
          "type": "bytes"
        }
      ],
      "name": "safeTransferFrom",
      "outputs": [],
      "stateMutability": "nonpayable",
      "type": "function"
    },
    {
      "inputs": [
        {
          "internalType": "address",
          "name": "operator",
          "type": "address"
        },
        {
          "internalType": "bool",
          "name": "approved",
          "type": "bool"
        }
      ],
      "name": "setApprovalForAll",
      "outputs": [],
      "stateMutability": "nonpayable",
      "type": "function"
    },
    {
      "inputs": [
        {
          "internalType": "bytes4",
          "name": "interfaceId",
          "type": "bytes4"
        }
      ],
      "name": "supportsInterface",
      "outputs": [
        {
          "internalType": "bool",
          "name": "",
          "type": "bool"
        }
      ],
      "stateMutability": "view",
      "type": "function"
    },
    {
      "inputs": [],
      "name": "symbol",
      "outputs": [
        {
          "internalType": "string",
          "name": "",
          "type": "string"
        }
      ],
      "stateMutability": "view",
      "type": "function"
    },
    {
      "inputs": [
        {
          "internalType": "uint256",
          "name": "tokenId",
          "type": "uint256"
        }
      ],
      "name": "tokenURI",
      "outputs": [
        {
          "internalType": "string",
          "name": "",
          "type": "string"
        }
      ],
      "stateMutability": "view",
      "type": "function"
    },
    {
      "inputs": [
        {
          "internalType": "address",
          "name": "from",
          "type": "address"
        },
        {
          "internalType": "address",
          "name": "to",
          "type": "address"
        },
        {
          "internalType": "uint256",
          "name": "tokenId",
          "type": "uint256"
        }
      ],
      "name": "transferFrom",
      "outputs": [],
      "stateMutability": "nonpayable",
      "type": "function"
    }
  ],
  "bytecode": "0x608060405234801561001057600080fd5b506040518060400160405280600581526020017f4d794e46540000000000000000000000000000000000000000000000000000008152506040518060400160405280600481526020017f4d4e465400000000000000000000000000000000000000000000000000000000815250816000908161008c91906102f4565b50806001908161009c91906102f4565b5050506103c6565b600081519050919050565b7f4e487b7100000000000000000000000000000000000000000000000000000000600052604160045260246000fd5b7f4e487b7100000000000000000000000000000000000000000000000000000000600052602260045260246000fd5b6000600282049050600182168061012557607f821691505b602082108103610138576101376100de565b5b50919050565b60008190508160005260206000209050919050565b60006020601f8301049050919050565b600082821b905092915050565b6000600883026101a07fffffffffffffffffffffffffffffffffffffffffffffffffffffffffffffffff82610163565b6101aa8683610163565b95508019841693508086168417925050509392505050565b6000819050919050565b6000819050919050565b60006101f16101ec6101e7846101c2565b6101cc565b6101c2565b9050919050565b6000819050919050565b61020b836101d6565b61021f610217826101f8565b848454610170565b825550505050565b600090565b610234610227565b61023f818484610202565b505050565b5b818110156102635761025860008261022c565b600181019050610245565b5050565b601f8211156102a8576102798161013e565b61028284610153565b81016020851015610291578190505b6102a561029d85610153565b830182610244565b50505b505050565b600082821c905092915050565b60006102cb600019846008026102ad565b1980831691505092915050565b60006102e483836102ba565b9150826002028217905092915050565b6102fd826100a4565b67ffffffffffffffff811115610316576103156100af565b5b610320825461010d565b61032b828285610267565b600060209050601f83116001811461035e576000841561034c578287015190505b61035685826102d8565b8655506103be565b601f19841661036c8661013e565b60005b828110156103945784890151825560018201915060208501945060208101905061036f565b868310156103b157848901516103ad601f8916826102ba565b8355505b6001600288020188555050505b505050505050565b6123da806103d56000396000f3fe608060405234801561001057600080fd5b50600436106100ea5760003560e01c80636352211e1161008c578063a22cb46511610066578063a22cb4651461025b578063b88d4fde14610277578063c87b56dd14610293578063e985e9c5146102c3576100ea565b80636352211e146101dd57806370a082311461020d57806395d89b411461023d576100ea565b8063095ea7b3116100c8578063095ea7b31461016d57806323b872dd1461018957806340d097c3146101a557806342842e0e146101c1576100ea565b806301ffc9a7146100ef57806306fdde031461011f578063081812fc1461013d575b600080fd5b6101096004803603810190610104919061186a565b6102f3565b60405161011691906118b2565b60405180910390f35b610127610354565b604051610134919061195d565b60405180910390f35b610157600480360381019061015291906119b5565b6103e6565b6040516101649190611a23565b60405180910390f35b61018760048036038101906101829190611a6a565b610402565b005b6101a3600480360381019061019e9190611aaa565b610418565b005b6101bf60048036038101906101ba9190611afd565b61051a565b005b6101db60048036038101906101d69190611aaa565b61057a565b005b6101f760048036038101906101f291906119b5565b61059a565b6040516102049190611a23565b60405180910390f35b61022760048036038101906102229190611afd565b6105ac565b6040516102349190611b39565b60405180910390f35b610245610666565b604051610252919061195d565b60405180910390f35b61027560048036038101906102709190611b80565b6106f8565b005b610291600480360381019061028c9190611cf5565b61070e565b005b6102ad60048036038101906102a891906119b5565b610733565b6040516102ba919061195d565b60405180910390f35b6102dd60048036038101906102d89190611d78565b610846565b6040516102ea91906118b2565b60405180910390f35b6000634906490660e01b7bffffffffffffffffffffffffffffffffffffffffffffffffffffffff1916827bffffffffffffffffffffffffffffffffffffffffffffffffffffffff1916148061034d575061034c826108da565b5b9050919050565b60606000805461036390611de7565b80601f016020809104026020016040519081016040528092919081815260200182805461038f90611de7565b80156103dc5780601f106103b1576101008083540402835291602001916103dc565b820191906000526020600020905b8154815290600101906020018083116103bf57829003601f168201915b5050505050905090565b60006103f1826109bc565b506103fb82610a44565b9050919050565b610414828261040f610a81565b610a89565b5050565b600073ffffffffffffffffffffffffffffffffffffffff168273ffffffffffffffffffffffffffffffffffffffff160361048a5760006040517f64a0ae920000000000000000000000000000000000000000000000000000000081526004016104819190611a23565b60405180910390fd5b600061049e8383610499610a81565b610a9b565b90508373ffffffffffffffffffffffffffffffffffffffff168173ffffffffffffffffffffffffffffffffffffffff1614610514578382826040517f64283d7b00000000000000000000000000000000000000000000000000000000815260040161050b93929190611e18565b60405180910390fd5b50505050565b60006007600081548092919061052f90611e7e565b91905055905061053f8282610cb5565b600061054a82610cd3565b60405160200161055a9190611f9a565b60405160208183030381529060405290506105758282610da1565b505050565b6105958383836040518060200160405280600081525061070e565b505050565b60006105a5826109bc565b9050919050565b60008073ffffffffffffffffffffffffffffffffffffffff168273ffffffffffffffffffffffffffffffffffffffff160361061f5760006040517f89c62b640000000000000000000000000000000000000000000000000000000081526004016106169190611a23565b60405180910390fd5b600360008373ffffffffffffffffffffffffffffffffffffffff1673ffffffffffffffffffffffffffffffffffffffff168152602001908152602001600020549050919050565b60606001805461067590611de7565b80601f01602080910402602001604051908101604052809291908181526020018280546106a190611de7565b80156106ee5780601f106106c3576101008083540402835291602001916106ee565b820191906000526020600020905b8154815290600101906020018083116106d157829003601f168201915b5050505050905090565b61070a610703610a81565b8383610dfd565b5050565b610719848484610418565b61072d610724610a81565b85858585610f6c565b50505050565b606061073e826109bc565b50600060066000848152602001908152602001600020805461075f90611de7565b80601f016020809104026020016040519081016040528092919081815260200182805461078b90611de7565b80156107d85780601f106107ad576101008083540402835291602001916107d8565b820191906000526020600020905b8154815290600101906020018083116107bb57829003601f168201915b5050505050905060006107e961111d565b905060008151036107fe578192505050610841565b60008251111561083357808260405160200161081b929190611fc7565b60405160208183030381529060405292505050610841565b61083c84611134565b925050505b919050565b6000600560008473ffffffffffffffffffffffffffffffffffffffff1673ffffffffffffffffffffffffffffffffffffffff16815260200190815260200160002060008373ffffffffffffffffffffffffffffffffffffffff1673ffffffffffffffffffffffffffffffffffffffff16815260200190815260200160002060009054906101000a900460ff16905092915050565b60007f80ac58cd000000000000000000000000000000000000000000000000000000007bffffffffffffffffffffffffffffffffffffffffffffffffffffffff1916827bffffffffffffffffffffffffffffffffffffffffffffffffffffffff191614806109a557507f5b5e139f000000000000000000000000000000000000000000000000000000007bffffffffffffffffffffffffffffffffffffffffffffffffffffffff1916827bffffffffffffffffffffffffffffffffffffffffffffffffffffffff1916145b806109b557506109b48261119d565b5b9050919050565b6000806109c883611207565b9050600073ffffffffffffffffffffffffffffffffffffffff168173ffffffffffffffffffffffffffffffffffffffff1603610a3b57826040517f7e273289000000000000000000000000000000000000000000000000000000008152600401610a329190611b39565b60405180910390fd5b80915050919050565b60006004600083815260200190815260200160002060009054906101000a900473ffffffffffffffffffffffffffffffffffffffff169050919050565b600033905090565b610a968383836001611244565b505050565b600080610aa784611207565b9050600073ffffffffffffffffffffffffffffffffffffffff168373ffffffffffffffffffffffffffffffffffffffff1614610ae957610ae8818486611409565b5b600073ffffffffffffffffffffffffffffffffffffffff168173ffffffffffffffffffffffffffffffffffffffff1614610b7a57610b2b600085600080611244565b6001600360008373ffffffffffffffffffffffffffffffffffffffff1673ffffffffffffffffffffffffffffffffffffffff168152602001908152602001600020600082825403925050819055505b600073ffffffffffffffffffffffffffffffffffffffff168573ffffffffffffffffffffffffffffffffffffffff1614610bfd576001600360008773ffffffffffffffffffffffffffffffffffffffff1673ffffffffffffffffffffffffffffffffffffffff168152602001908152602001600020600082825401925050819055505b846002600086815260200190815260200160002060006101000a81548173ffffffffffffffffffffffffffffffffffffffff021916908373ffffffffffffffffffffffffffffffffffffffff160217905550838573ffffffffffffffffffffffffffffffffffffffff168273ffffffffffffffffffffffffffffffffffffffff167fddf252ad1be2c89b69c2b068fc378daa952ba7f163c4a11628f55a4df523b3ef60405160405180910390a4809150509392505050565b610ccf8282604051806020016040528060008152506114cd565b5050565b606060006001610ce2846114f1565b01905060008167ffffffffffffffff811115610d0157610d00611bca565b5b6040519080825280601f01601f191660200182016040528015610d335781602001600182028036833780820191505090505b509050600082602083010190505b600115610d96578080600190039150507f3031323334353637383961626364656600000000000000000000000000000000600a86061a8153600a8581610d8a57610d89611feb565b5b04945060008503610d41575b819350505050919050565b80600660008481526020019081526020016000209081610dc191906121c6565b507ff8e1a15aba9398e019f0b49df1a4fde98ee17ae345cb5f6b5e2c27f5033e8ce782604051610df19190611b39565b60405180910390a15050565b600073ffffffffffffffffffffffffffffffffffffffff168273ffffffffffffffffffffffffffffffffffffffff1603610e6e57816040517f5b08ba18000000000000000000000000000000000000000000000000000000008152600401610e659190611a23565b60405180910390fd5b80600560008573ffffffffffffffffffffffffffffffffffffffff1673ffffffffffffffffffffffffffffffffffffffff16815260200190815260200160002060008473ffffffffffffffffffffffffffffffffffffffff1673ffffffffffffffffffffffffffffffffffffffff16815260200190815260200160002060006101000a81548160ff0219169083151502179055508173ffffffffffffffffffffffffffffffffffffffff168373ffffffffffffffffffffffffffffffffffffffff167f17307eab39ab6107e8899845ad3d59bd9653f200f220920489ca2b5937696c3183604051610f5f91906118b2565b60405180910390a3505050565b60008373ffffffffffffffffffffffffffffffffffffffff163b1115611116578273ffffffffffffffffffffffffffffffffffffffff1663150b7a02868685856040518563ffffffff1660e01b8152600401610fcb94939291906122ed565b6020604051808303816000875af192505050801561100757506040513d601f19601f82011682018060405250810190611004919061234e565b60015b61108b573d8060008114611037576040519150601f19603f3d011682016040523d82523d6000602084013e61103c565b606091505b50600081510361108357836040517f64a0ae9200000000000000000000000000000000000000000000000000000000815260040161107a9190611a23565b60405180910390fd5b805160208201fd5b63150b7a0260e01b7bffffffffffffffffffffffffffffffffffffffffffffffffffffffff1916817bffffffffffffffffffffffffffffffffffffffffffffffffffffffff19161461111457836040517f64a0ae9200000000000000000000000000000000000000000000000000000000815260040161110b9190611a23565b60405180910390fd5b505b5050505050565b606060405180602001604052806000815250905090565b606061113f826109bc565b50600061114a61111d565b9050600081511161116a5760405180602001604052806000815250611195565b8061117484610cd3565b604051602001611185929190611fc7565b6040516020818303038152906040525b915050919050565b60007f01ffc9a7000000000000000000000000000000000000000000000000000000007bffffffffffffffffffffffffffffffffffffffffffffffffffffffff1916827bffffffffffffffffffffffffffffffffffffffffffffffffffffffff1916149050919050565b60006002600083815260200190815260200160002060009054906101000a900473ffffffffffffffffffffffffffffffffffffffff169050919050565b808061127d5750600073ffffffffffffffffffffffffffffffffffffffff168273ffffffffffffffffffffffffffffffffffffffff1614155b156113b157600061128d846109bc565b9050600073ffffffffffffffffffffffffffffffffffffffff168373ffffffffffffffffffffffffffffffffffffffff16141580156112f857508273ffffffffffffffffffffffffffffffffffffffff168173ffffffffffffffffffffffffffffffffffffffff1614155b801561130b57506113098184610846565b155b1561134d57826040517fa9fbf51f0000000000000000000000000000000000000000000000000000000081526004016113449190611a23565b60405180910390fd5b81156113af57838573ffffffffffffffffffffffffffffffffffffffff168273ffffffffffffffffffffffffffffffffffffffff167f8c5be1e5ebec7d5bd14f71427d1e84f3dd0314c0f7b2291e5b200ac8c7c3b92560405160405180910390a45b505b836004600085815260200190815260200160002060006101000a81548173ffffffffffffffffffffffffffffffffffffffff021916908373ffffffffffffffffffffffffffffffffffffffff16021790555050505050565b611414838383611644565b6114c857600073ffffffffffffffffffffffffffffffffffffffff168373ffffffffffffffffffffffffffffffffffffffff160361148957806040517f7e2732890000000000000000000000000000000000000000000000000000000081526004016114809190611b39565b60405180910390fd5b81816040517f177e802f0000000000000000000000000000000000000000000000000000000081526004016114bf92919061237b565b60405180910390fd5b505050565b6114d78383611705565b6114ec6114e2610a81565b6000858585610f6c565b505050565b600080600090507a184f03e93ff9f4daa797ed6e38ed64bf6a1f010000000000000000831061154f577a184f03e93ff9f4daa797ed6e38ed64bf6a1f010000000000000000838161154557611544611feb565b5b0492506040810190505b6d04ee2d6d415b85acef8100000000831061158c576d04ee2d6d415b85acef8100000000838161158257611581611feb565b5b0492506020810190505b662386f26fc1000083106115bb57662386f26fc1000083816115b1576115b0611feb565b5b0492506010810190505b6305f5e10083106115e4576305f5e10083816115da576115d9611feb565b5b0492506008810190505b61271083106116095761271083816115ff576115fe611feb565b5b0492506004810190505b6064831061162c576064838161162257611621611feb565b5b0492506002810190505b600a831061163b576001810190505b80915050919050565b60008073ffffffffffffffffffffffffffffffffffffffff168373ffffffffffffffffffffffffffffffffffffffff16141580156116fc57508273ffffffffffffffffffffffffffffffffffffffff168473ffffffffffffffffffffffffffffffffffffffff1614806116bd57506116bc8484610846565b5b806116fb57508273ffffffffffffffffffffffffffffffffffffffff166116e383610a44565b73ffffffffffffffffffffffffffffffffffffffff16145b5b90509392505050565b600073ffffffffffffffffffffffffffffffffffffffff168273ffffffffffffffffffffffffffffffffffffffff16036117775760006040517f64a0ae9200000000000000000000000000000000000000000000000000000000815260040161176e9190611a23565b60405180910390fd5b600061178583836000610a9b565b9050600073ffffffffffffffffffffffffffffffffffffffff168173ffffffffffffffffffffffffffffffffffffffff16146117f95760006040517f73c6ac6e0000000000000000000000000000000000000000000000000000000081526004016117f09190611a23565b60405180910390fd5b505050565b6000604051905090565b600080fd5b600080fd5b60007fffffffff0000000000000000000000000000000000000000000000000000000082169050919050565b61184781611812565b811461185257600080fd5b50565b6000813590506118648161183e565b92915050565b6000602082840312156118805761187f611808565b5b600061188e84828501611855565b91505092915050565b60008115159050919050565b6118ac81611897565b82525050565b60006020820190506118c760008301846118a3565b92915050565b600081519050919050565b600082825260208201905092915050565b60005b838110156119075780820151818401526020810190506118ec565b60008484015250505050565b6000601f19601f8301169050919050565b600061192f826118cd565b61193981856118d8565b93506119498185602086016118e9565b61195281611913565b840191505092915050565b600060208201905081810360008301526119778184611924565b905092915050565b6000819050919050565b6119928161197f565b811461199d57600080fd5b50565b6000813590506119af81611989565b92915050565b6000602082840312156119cb576119ca611808565b5b60006119d9848285016119a0565b91505092915050565b600073ffffffffffffffffffffffffffffffffffffffff82169050919050565b6000611a0d826119e2565b9050919050565b611a1d81611a02565b82525050565b6000602082019050611a386000830184611a14565b92915050565b611a4781611a02565b8114611a5257600080fd5b50565b600081359050611a6481611a3e565b92915050565b60008060408385031215611a8157611a80611808565b5b6000611a8f85828601611a55565b9250506020611aa0858286016119a0565b9150509250929050565b600080600060608486031215611ac357611ac2611808565b5b6000611ad186828701611a55565b9350506020611ae286828701611a55565b9250506040611af3868287016119a0565b9150509250925092565b600060208284031215611b1357611b12611808565b5b6000611b2184828501611a55565b91505092915050565b611b338161197f565b82525050565b6000602082019050611b4e6000830184611b2a565b92915050565b611b5d81611897565b8114611b6857600080fd5b50565b600081359050611b7a81611b54565b92915050565b60008060408385031215611b9757611b96611808565b5b6000611ba585828601611a55565b9250506020611bb685828601611b6b565b9150509250929050565b600080fd5b600080fd5b7f4e487b7100000000000000000000000000000000000000000000000000000000600052604160045260246000fd5b611c0282611913565b810181811067ffffffffffffffff82111715611c2157611c20611bca565b5b80604052505050565b6000611c346117fe565b9050611c408282611bf9565b919050565b600067ffffffffffffffff821115611c6057611c5f611bca565b5b611c6982611913565b9050602081019050919050565b82818337600083830152505050565b6000611c98611c9384611c45565b611c2a565b905082815260208101848484011115611cb457611cb3611bc5565b5b611cbf848285611c76565b509392505050565b600082601f830112611cdc57611cdb611bc0565b5b8135611cec848260208601611c85565b91505092915050565b60008060008060808587031215611d0f57611d0e611808565b5b6000611d1d87828801611a55565b9450506020611d2e87828801611a55565b9350506040611d3f878288016119a0565b925050606085013567ffffffffffffffff811115611d6057611d5f61180d565b5b611d6c87828801611cc7565b91505092959194509250565b60008060408385031215611d8f57611d8e611808565b5b6000611d9d85828601611a55565b9250506020611dae85828601611a55565b9150509250929050565b7f4e487b7100000000000000000000000000000000000000000000000000000000600052602260045260246000fd5b60006002820490506001821680611dff57607f821691505b602082108103611e1257611e11611db8565b5b50919050565b6000606082019050611e2d6000830186611a14565b611e3a6020830185611b2a565b611e476040830184611a14565b949350505050565b7f4e487b7100000000000000000000000000000000000000000000000000000000600052601160045260246000fd5b6000611e898261197f565b91507fffffffffffffffffffffffffffffffffffffffffffffffffffffffffffffffff8203611ebb57611eba611e4f565b5b600182019050919050565b600081905092915050565b7f687474703a2f2f6c6f63616c686f73743a333030302f6d657461646174612f00600082015250565b6000611f07601f83611ec6565b9150611f1282611ed1565b601f82019050919050565b6000611f28826118cd565b611f328185611ec6565b9350611f428185602086016118e9565b80840191505092915050565b7f2e6a736f6e000000000000000000000000000000000000000000000000000000600082015250565b6000611f84600583611ec6565b9150611f8f82611f4e565b600582019050919050565b6000611fa582611efa565b9150611fb18284611f1d565b9150611fbc82611f77565b915081905092915050565b6000611fd38285611f1d565b9150611fdf8284611f1d565b91508190509392505050565b7f4e487b7100000000000000000000000000000000000000000000000000000000600052601260045260246000fd5b60008190508160005260206000209050919050565b60006020601f8301049050919050565b600082821b905092915050565b60006008830261207c7fffffffffffffffffffffffffffffffffffffffffffffffffffffffffffffffff8261203f565b612086868361203f565b95508019841693508086168417925050509392505050565b6000819050919050565b60006120c36120be6120b98461197f565b61209e565b61197f565b9050919050565b6000819050919050565b6120dd836120a8565b6120f16120e9826120ca565b84845461204c565b825550505050565b600090565b6121066120f9565b6121118184846120d4565b505050565b5b818110156121355761212a6000826120fe565b600181019050612117565b5050565b601f82111561217a5761214b8161201a565b6121548461202f565b81016020851015612163578190505b61217761216f8561202f565b830182612116565b50505b505050565b600082821c905092915050565b600061219d6000198460080261217f565b1980831691505092915050565b60006121b6838361218c565b9150826002028217905092915050565b6121cf826118cd565b67ffffffffffffffff8111156121e8576121e7611bca565b5b6121f28254611de7565b6121fd828285612139565b600060209050601f831160018114612230576000841561221e578287015190505b61222885826121aa565b865550612290565b601f19841661223e8661201a565b60005b8281101561226657848901518255600182019150602085019450602081019050612241565b86831015612283578489015161227f601f89168261218c565b8355505b6001600288020188555050505b505050505050565b600081519050919050565b600082825260208201905092915050565b60006122bf82612298565b6122c981856122a3565b93506122d98185602086016118e9565b6122e281611913565b840191505092915050565b60006080820190506123026000830187611a14565b61230f6020830186611a14565b61231c6040830185611b2a565b818103606083015261232e81846122b4565b905095945050505050565b6000815190506123488161183e565b92915050565b60006020828403121561236457612363611808565b5b600061237284828501612339565b91505092915050565b60006040820190506123906000830185611a14565b61239d6020830184611b2a565b939250505056fea26469706673582212201598434b6483941f1cb2779ded9b4b8f317e094481117e84a25c1f95c3675ab164736f6c634300081c0033",
  "linkReferences": {},
  "deployedLinkReferences": {}
}