{
  "_format": "hh-sol-artifact-1",
  "contractName": "Permit",
  "sourceName": "contracts/Permit.sol",
  "abi": [
    {
      "inputs": [],
      "stateMutability": "nonpayable",
      "type": "constructor"
    },
    {
      "anonymous": false,
      "inputs": [
        {
          "indexed": true,
          "internalType": "address",
          "name": "owner",
          "type": "address"
        },
        {
          "indexed": true,
          "internalType": "address",
          "name": "approved",
          "type": "address"
        },
        {
          "indexed": true,
          "internalType": "uint256",
          "name": "tokenId",
          "type": "uint256"
        }
      ],
      "name": "Approval",
      "type": "event"
    },
    {
      "anonymous": false,
      "inputs": [
        {
          "indexed": true,
          "internalType": "address",
          "name": "owner",
          "type": "address"
        },
        {
          "indexed": true,
          "internalType": "address",
          "name": "operator",
          "type": "address"
        },
        {
          "indexed": false,
          "internalType": "bool",
          "name": "approved",
          "type": "bool"
        }
      ],
      "name": "ApprovalForAll",
      "type": "event"
    },
    {
      "anonymous": false,
      "inputs": [
        {
          "indexed": false,
          "internalType": "uint256",
          "name": "_fromTokenId",
          "type": "uint256"
        },
        {
          "indexed": false,
          "internalType": "uint256",
          "name": "_toTokenId",
          "type": "uint256"
        }
      ],
      "name": "BatchMetadataUpdate",
      "type": "event"
    },
    {
      "anonymous": false,
      "inputs": [
        {
          "indexed": false,
          "internalType": "uint256",
          "name": "_tokenId",
          "type": "uint256"
        }
      ],
      "name": "MetadataUpdate",
      "type": "event"
    },
    {
      "anonymous": false,
      "inputs": [
        {
          "indexed": true,
          "internalType": "address",
          "name": "previousOwner",
          "type": "address"
        },
        {
          "indexed": true,
          "internalType": "address",
          "name": "newOwner",
          "type": "address"
        }
      ],
      "name": "OwnershipTransferred",
      "type": "event"
    },
    {
      "anonymous": false,
      "inputs": [
        {
          "indexed": true,
          "internalType": "address",
          "name": "from",
          "type": "address"
        },
        {
          "indexed": true,
          "internalType": "address",
          "name": "to",
          "type": "address"
        },
        {
          "indexed": true,
          "internalType": "uint256",
          "name": "tokenId",
          "type": "uint256"
        }
      ],
      "name": "Transfer",
      "type": "event"
    },
    {
      "inputs": [
        {
          "internalType": "address",
          "name": "to",
          "type": "address"
        },
        {
          "internalType": "uint256",
          "name": "tokenId",
          "type": "uint256"
        }
      ],
      "name": "approve",
      "outputs": [],
      "stateMutability": "nonpayable",
      "type": "function"
    },
    {
      "inputs": [
        {
          "internalType": "address",
          "name": "owner",
          "type": "address"
        }
      ],
      "name": "balanceOf",
      "outputs": [
        {
          "internalType": "uint256",
          "name": "",
          "type": "uint256"
        }
      ],
      "stateMutability": "view",
      "type": "function"
    },
    {
      "inputs": [
        {
          "internalType": "uint256",
          "name": "tokenId",
          "type": "uint256"
        }
      ],
      "name": "burnPermit",
      "outputs": [],
      "stateMutability": "nonpayable",
      "type": "function"
    },
    {
      "inputs": [
        {
          "internalType": "uint256",
          "name": "tokenId",
          "type": "uint256"
        }
      ],
      "name": "getApproved",
      "outputs": [
        {
          "internalType": "address",
          "name": "",
          "type": "address"
        }
      ],
      "stateMutability": "view",
      "type": "function"
    },
    {
      "inputs": [
        {
          "internalType": "address",
          "name": "owner",
          "type": "address"
        },
        {
          "internalType": "address",
          "name": "operator",
          "type": "address"
        }
      ],
      "name": "isApprovedForAll",
      "outputs": [
        {
          "internalType": "bool",
          "name": "",
          "type": "bool"
        }
      ],
      "stateMutability": "view",
      "type": "function"
    },
    {
      "inputs": [
        {
          "internalType": "address",
          "name": "to",
          "type": "address"
        },
        {
          "internalType": "string",
          "name": "uri",
          "type": "string"
        }
      ],
      "name": "mintPermit",
      "outputs": [],
      "stateMutability": "nonpayable",
      "type": "function"
    },
    {
      "inputs": [],
      "name": "name",
      "outputs": [
        {
          "internalType": "string",
          "name": "",
          "type": "string"
        }
      ],
      "stateMutability": "view",
      "type": "function"
    },
    {
      "inputs": [],
      "name": "owner",
      "outputs": [
        {
          "internalType": "address",
          "name": "",
          "type": "address"
        }
      ],
      "stateMutability": "view",
      "type": "function"
    },
    {
      "inputs": [
        {
          "internalType": "uint256",
          "name": "tokenId",
          "type": "uint256"
        }
      ],
      "name": "ownerOf",
      "outputs": [
        {
          "internalType": "address",
          "name": "",
          "type": "address"
        }
      ],
      "stateMutability": "view",
      "type": "function"
    },
    {
      "inputs": [
        {
          "internalType": "address",
          "name": "owner",
          "type": "address"
        }
      ],
      "name": "permitsOf",
      "outputs": [
        {
          "internalType": "uint256[]",
          "name": "",
          "type": "uint256[]"
        }
      ],
      "stateMutability": "view",
      "type": "function"
    },
    {
      "inputs": [],
      "name": "renounceOwnership",
      "outputs": [],
      "stateMutability": "nonpayable",
      "type": "function"
    },
    {
      "inputs": [
        {
          "internalType": "address",
          "name": "from",
          "type": "address"
        },
        {
          "internalType": "address",
          "name": "to",
          "type": "address"
        },
        {
          "internalType": "uint256",
          "name": "tokenId",
          "type": "uint256"
        }
      ],
      "name": "safeTransferFrom",
      "outputs": [],
      "stateMutability": "nonpayable",
      "type": "function"
    },
    {
      "inputs": [
        {
          "internalType": "address",
          "name": "from",
          "type": "address"
        },
        {
          "internalType": "address",
          "name": "to",
          "type": "address"
        },
        {
          "internalType": "uint256",
          "name": "tokenId",
          "type": "uint256"
        },
        {
          "internalType": "bytes",
          "name": "data",
          "type": "bytes"
        }
      ],
      "name": "safeTransferFrom",
      "outputs": [],
      "stateMutability": "nonpayable",
      "type": "function"
    },
    {
      "inputs": [
        {
          "internalType": "address",
          "name": "operator",
          "type": "address"
        },
        {
          "internalType": "bool",
          "name": "approved",
          "type": "bool"
        }
      ],
      "name": "setApprovalForAll",
      "outputs": [],
      "stateMutability": "nonpayable",
      "type": "function"
    },
    {
      "inputs": [
        {
          "internalType": "bytes4",
          "name": "interfaceId",
          "type": "bytes4"
        }
      ],
      "name": "supportsInterface",
      "outputs": [
        {
          "internalType": "bool",
          "name": "",
          "type": "bool"
        }
      ],
      "stateMutability": "view",
      "type": "function"
    },
    {
      "inputs": [],
      "name": "symbol",
      "outputs": [
        {
          "internalType": "string",
          "name": "",
          "type": "string"
        }
      ],
      "stateMutability": "view",
      "type": "function"
    },
    {
      "inputs": [
        {
          "internalType": "uint256",
          "name": "tokenId",
          "type": "uint256"
        }
      ],
      "name": "tokenURI",
      "outputs": [
        {
          "internalType": "string",
          "name": "",
          "type": "string"
        }
      ],
      "stateMutability": "view",
      "type": "function"
    },
    {
      "inputs": [],
      "name": "totalMinted",
      "outputs": [
        {
          "internalType": "uint256",
          "name": "",
          "type": "uint256"
        }
      ],
      "stateMutability": "view",
      "type": "function"
    },
    {
      "inputs": [
        {
          "internalType": "address",
          "name": "from",
          "type": "address"
        },
        {
          "internalType": "address",
          "name": "to",
          "type": "address"
        },
        {
          "internalType": "uint256",
          "name": "tokenId",
          "type": "uint256"
        }
      ],
      "name": "transferFrom",
      "outputs": [],
      "stateMutability": "nonpayable",
      "type": "function"
    },
    {
      "inputs": [
        {
          "internalType": "address",
          "name": "newOwner",
          "type": "address"
        }
      ],
      "name": "transferOwnership",
      "outputs": [],
      "stateMutability": "nonpayable",
      "type": "function"
    }
  ],
  "bytecode": "0x6080604052600160085534801561001557600080fd5b506040518060400160405280600f81526020017f476f76436861696e205065726d697400000000000000000000000000000000008152506040518060400160405280600381526020017f4743500000000000000000000000000000000000000000000000000000000000815250816000908161009191906103e3565b5080600190816100a191906103e3565b5050506100c06100b56100c560201b60201c565b6100cd60201b60201c565b6104b5565b600033905090565b6000600760009054906101000a900473ffffffffffffffffffffffffffffffffffffffff16905081600760006101000a81548173ffffffffffffffffffffffffffffffffffffffff021916908373ffffffffffffffffffffffffffffffffffffffff1602179055508173ffffffffffffffffffffffffffffffffffffffff168173ffffffffffffffffffffffffffffffffffffffff167f8be0079c531659141344cd1fd0a4f28419497f9722a3daafe3b4186f6b6457e060405160405180910390a35050565b600081519050919050565b7f4e487b7100000000000000000000000000000000000000000000000000000000600052604160045260246000fd5b7f4e487b7100000000000000000000000000000000000000000000000000000000600052602260045260246000fd5b6000600282049050600182168061021457607f821691505b602082108103610227576102266101cd565b5b50919050565b60008190508160005260206000209050919050565b60006020601f8301049050919050565b600082821b905092915050565b60006008830261028f7fffffffffffffffffffffffffffffffffffffffffffffffffffffffffffffffff82610252565b6102998683610252565b95508019841693508086168417925050509392505050565b6000819050919050565b6000819050919050565b60006102e06102db6102d6846102b1565b6102bb565b6102b1565b9050919050565b6000819050919050565b6102fa836102c5565b61030e610306826102e7565b84845461025f565b825550505050565b600090565b610323610316565b61032e8184846102f1565b505050565b5b818110156103525761034760008261031b565b600181019050610334565b5050565b601f821115610397576103688161022d565b61037184610242565b81016020851015610380578190505b61039461038c85610242565b830182610333565b50505b505050565b600082821c905092915050565b60006103ba6000198460080261039c565b1980831691505092915050565b60006103d383836103a9565b9150826002028217905092915050565b6103ec82610193565b67ffffffffffffffff8111156104055761040461019e565b5b61040f82546101fc565b61041a828285610356565b600060209050601f83116001811461044d576000841561043b578287015190505b61044585826103c7565b8655506104ad565b601f19841661045b8661022d565b60005b828110156104835784890151825560018201915060208501945060208101905061045e565b868310156104a0578489015161049c601f8916826103a9565b8355505b6001600288020188555050505b505050505050565b6136fb806104c46000396000f3fe608060405234801561001057600080fd5b506004361061012c5760003560e01c80638da5cb5b116100ad578063c87b56dd11610071578063c87b56dd1461032f578063cf4ae3ae1461035f578063d863042c1461037b578063e985e9c514610397578063f2fde38b146103c75761012c565b80638da5cb5b1461029d57806395d89b41146102bb578063a22cb465146102d9578063a2309ff8146102f5578063b88d4fde146103135761012c565b806323b872dd116100f457806323b872dd146101fb57806342842e0e146102175780636352211e1461023357806370a0823114610263578063715018a6146102935761012c565b806301ffc9a71461013157806306fdde0314610161578063081812fc1461017f578063095ea7b3146101af5780630da610d8146101cb575b600080fd5b61014b60048036038101906101469190612134565b6103e3565b604051610158919061217c565b60405180910390f35b6101696103f5565b6040516101769190612227565b60405180910390f35b6101996004803603810190610194919061227f565b610487565b6040516101a691906122ed565b60405180910390f35b6101c960048036038101906101c49190612334565b6104cd565b005b6101e560048036038101906101e09190612374565b6105e4565b6040516101f2919061245f565b60405180910390f35b61021560048036038101906102109190612481565b610727565b005b610231600480360381019061022c9190612481565b610787565b005b61024d6004803603810190610248919061227f565b6107a7565b60405161025a91906122ed565b60405180910390f35b61027d60048036038101906102789190612374565b61082d565b60405161028a91906124e3565b60405180910390f35b61029b6108e4565b005b6102a56108f8565b6040516102b291906122ed565b60405180910390f35b6102c3610922565b6040516102d09190612227565b60405180910390f35b6102f360048036038101906102ee919061252a565b6109b4565b005b6102fd6109ca565b60405161030a91906124e3565b60405180910390f35b61032d6004803603810190610328919061269f565b6109e0565b005b6103496004803603810190610344919061227f565b610a42565b6040516103569190612227565b60405180910390f35b6103796004803603810190610374919061227f565b610a54565b005b610395600480360381019061039091906127c3565b610af8565b005b6103b160048036038101906103ac919061281f565b610b34565b6040516103be919061217c565b60405180910390f35b6103e160048036038101906103dc9190612374565b610bc8565b005b60006103ee82610c4b565b9050919050565b6060600080546104049061288e565b80601f01602080910402602001604051908101604052809291908181526020018280546104309061288e565b801561047d5780601f106104525761010080835404028352916020019161047d565b820191906000526020600020905b81548152906001019060200180831161046057829003601f168201915b5050505050905090565b600061049282610cac565b6004600083815260200190815260200160002060009054906101000a900473ffffffffffffffffffffffffffffffffffffffff169050919050565b60006104d8826107a7565b90508073ffffffffffffffffffffffffffffffffffffffff168373ffffffffffffffffffffffffffffffffffffffff1603610548576040517f08c379a000000000000000000000000000000000000000000000000000000000815260040161053f90612931565b60405180910390fd5b8073ffffffffffffffffffffffffffffffffffffffff16610567610cf7565b73ffffffffffffffffffffffffffffffffffffffff161480610596575061059581610590610cf7565b610b34565b5b6105d5576040517f08c379a00000000000000000000000000000000000000000000000000000000081526004016105cc906129c3565b60405180910390fd5b6105df8383610cff565b505050565b606060006105f06109ca565b905060008167ffffffffffffffff81111561060e5761060d612574565b5b60405190808252806020026020018201604052801561063c5781602001602082028036833780820191505090505b509050600080600190505b8381116106dd5761065781610db8565b801561069657508573ffffffffffffffffffffffffffffffffffffffff1661067e826107a7565b73ffffffffffffffffffffffffffffffffffffffff16145b156106ca57808383815181106106af576106ae6129e3565b5b60200260200101818152505081806106c690612a41565b9250505b80806106d590612a41565b915050610647565b506000826040516020016106f1919061245f565b60405160208183030381529060405290508160408201528080602001905181019061071c9190612b66565b945050505050919050565b610738610732610cf7565b82610df9565b610777576040517f08c379a000000000000000000000000000000000000000000000000000000000815260040161076e90612c21565b60405180910390fd5b610782838383610e8e565b505050565b6107a2838383604051806020016040528060008152506109e0565b505050565b6000806107b383611187565b9050600073ffffffffffffffffffffffffffffffffffffffff168173ffffffffffffffffffffffffffffffffffffffff1603610824576040517f08c379a000000000000000000000000000000000000000000000000000000000815260040161081b90612c8d565b60405180910390fd5b80915050919050565b60008073ffffffffffffffffffffffffffffffffffffffff168273ffffffffffffffffffffffffffffffffffffffff160361089d576040517f08c379a000000000000000000000000000000000000000000000000000000000815260040161089490612d1f565b60405180910390fd5b600360008373ffffffffffffffffffffffffffffffffffffffff1673ffffffffffffffffffffffffffffffffffffffff168152602001908152602001600020549050919050565b6108ec6111c4565b6108f66000611242565b565b6000600760009054906101000a900473ffffffffffffffffffffffffffffffffffffffff16905090565b6060600180546109319061288e565b80601f016020809104026020016040519081016040528092919081815260200182805461095d9061288e565b80156109aa5780601f1061097f576101008083540402835291602001916109aa565b820191906000526020600020905b81548152906001019060200180831161098d57829003601f168201915b5050505050905090565b6109c66109bf610cf7565b8383611308565b5050565b600060016008546109db9190612d3f565b905090565b6109f16109eb610cf7565b83610df9565b610a30576040517f08c379a0000000000000000000000000000000000000000000000000000000008152600401610a2790612c21565b60405180910390fd5b610a3c84848484611474565b50505050565b6060610a4d826114d0565b9050919050565b610a5d81610db8565b610a9c576040517f08c379a0000000000000000000000000000000000000000000000000000000008152600401610a9390612dbf565b60405180910390fd5b610aad610aa7610cf7565b82610df9565b610aec576040517f08c379a0000000000000000000000000000000000000000000000000000000008152600401610ae390612e2b565b60405180910390fd5b610af5816115e2565b50565b610b006111c4565b600060086000815480929190610b1590612a41565b919050559050610b2583826115ee565b610b2f818361160c565b505050565b6000600560008473ffffffffffffffffffffffffffffffffffffffff1673ffffffffffffffffffffffffffffffffffffffff16815260200190815260200160002060008373ffffffffffffffffffffffffffffffffffffffff1673ffffffffffffffffffffffffffffffffffffffff16815260200190815260200160002060009054906101000a900460ff16905092915050565b610bd06111c4565b600073ffffffffffffffffffffffffffffffffffffffff168173ffffffffffffffffffffffffffffffffffffffff1603610c3f576040517f08c379a0000000000000000000000000000000000000000000000000000000008152600401610c3690612ebd565b60405180910390fd5b610c4881611242565b50565b6000634906490660e01b7bffffffffffffffffffffffffffffffffffffffffffffffffffffffff1916827bffffffffffffffffffffffffffffffffffffffffffffffffffffffff19161480610ca55750610ca4826116b0565b5b9050919050565b610cb581610db8565b610cf4576040517f08c379a0000000000000000000000000000000000000000000000000000000008152600401610ceb90612c8d565b60405180910390fd5b50565b600033905090565b816004600083815260200190815260200160002060006101000a81548173ffffffffffffffffffffffffffffffffffffffff021916908373ffffffffffffffffffffffffffffffffffffffff160217905550808273ffffffffffffffffffffffffffffffffffffffff16610d72836107a7565b73ffffffffffffffffffffffffffffffffffffffff167f8c5be1e5ebec7d5bd14f71427d1e84f3dd0314c0f7b2291e5b200ac8c7c3b92560405160405180910390a45050565b60008073ffffffffffffffffffffffffffffffffffffffff16610dda83611187565b73ffffffffffffffffffffffffffffffffffffffff1614159050919050565b600080610e05836107a7565b90508073ffffffffffffffffffffffffffffffffffffffff168473ffffffffffffffffffffffffffffffffffffffff161480610e475750610e468185610b34565b5b80610e8557508373ffffffffffffffffffffffffffffffffffffffff16610e6d84610487565b73ffffffffffffffffffffffffffffffffffffffff16145b91505092915050565b8273ffffffffffffffffffffffffffffffffffffffff16610eae826107a7565b73ffffffffffffffffffffffffffffffffffffffff1614610f04576040517f08c379a0000000000000000000000000000000000000000000000000000000008152600401610efb90612f4f565b60405180910390fd5b600073ffffffffffffffffffffffffffffffffffffffff168273ffffffffffffffffffffffffffffffffffffffff1603610f73576040517f08c379a0000000000000000000000000000000000000000000000000000000008152600401610f6a90612fe1565b60405180910390fd5b610f808383836001611792565b8273ffffffffffffffffffffffffffffffffffffffff16610fa0826107a7565b73ffffffffffffffffffffffffffffffffffffffff1614610ff6576040517f08c379a0000000000000000000000000000000000000000000000000000000008152600401610fed90612f4f565b60405180910390fd5b6004600082815260200190815260200160002060006101000a81549073ffffffffffffffffffffffffffffffffffffffff02191690556001600360008573ffffffffffffffffffffffffffffffffffffffff1673ffffffffffffffffffffffffffffffffffffffff168152602001908152602001600020600082825403925050819055506001600360008473ffffffffffffffffffffffffffffffffffffffff1673ffffffffffffffffffffffffffffffffffffffff16815260200190815260200160002060008282540192505081905550816002600083815260200190815260200160002060006101000a81548173ffffffffffffffffffffffffffffffffffffffff021916908373ffffffffffffffffffffffffffffffffffffffff160217905550808273ffffffffffffffffffffffffffffffffffffffff168473ffffffffffffffffffffffffffffffffffffffff167fddf252ad1be2c89b69c2b068fc378daa952ba7f163c4a11628f55a4df523b3ef60405160405180910390a46111828383836001611798565b505050565b60006002600083815260200190815260200160002060009054906101000a900473ffffffffffffffffffffffffffffffffffffffff169050919050565b6111cc610cf7565b73ffffffffffffffffffffffffffffffffffffffff166111ea6108f8565b73ffffffffffffffffffffffffffffffffffffffff1614611240576040517f08c379a00000000000000000000000000000000000000000000000000000000081526004016112379061304d565b60405180910390fd5b565b6000600760009054906101000a900473ffffffffffffffffffffffffffffffffffffffff16905081600760006101000a81548173ffffffffffffffffffffffffffffffffffffffff021916908373ffffffffffffffffffffffffffffffffffffffff1602179055508173ffffffffffffffffffffffffffffffffffffffff168173ffffffffffffffffffffffffffffffffffffffff167f8be0079c531659141344cd1fd0a4f28419497f9722a3daafe3b4186f6b6457e060405160405180910390a35050565b8173ffffffffffffffffffffffffffffffffffffffff168373ffffffffffffffffffffffffffffffffffffffff1603611376576040517f08c379a000000000000000000000000000000000000000000000000000000000815260040161136d906130b9565b60405180910390fd5b80600560008573ffffffffffffffffffffffffffffffffffffffff1673ffffffffffffffffffffffffffffffffffffffff16815260200190815260200160002060008473ffffffffffffffffffffffffffffffffffffffff1673ffffffffffffffffffffffffffffffffffffffff16815260200190815260200160002060006101000a81548160ff0219169083151502179055508173ffffffffffffffffffffffffffffffffffffffff168373ffffffffffffffffffffffffffffffffffffffff167f17307eab39ab6107e8899845ad3d59bd9653f200f220920489ca2b5937696c3183604051611467919061217c565b60405180910390a3505050565b61147f848484610e8e565b61148b8484848461179e565b6114ca576040517f08c379a00000000000000000000000000000000000000000000000000000000081526004016114c19061314b565b60405180910390fd5b50505050565b60606114db82610cac565b60006006600084815260200190815260200160002080546114fb9061288e565b80601f01602080910402602001604051908101604052809291908181526020018280546115279061288e565b80156115745780601f1061154957610100808354040283529160200191611574565b820191906000526020600020905b81548152906001019060200180831161155757829003601f168201915b505050505090506000611585611925565b9050600081510361159a5781925050506115dd565b6000825111156115cf5780826040516020016115b79291906131a7565b604051602081830303815290604052925050506115dd565b6115d88461193c565b925050505b919050565b6115eb816119a4565b50565b6116088282604051806020016040528060008152506119f7565b5050565b61161582610db8565b611654576040517f08c379a000000000000000000000000000000000000000000000000000000000815260040161164b9061323d565b60405180910390fd5b806006600084815260200190815260200160002090816116749190613409565b507ff8e1a15aba9398e019f0b49df1a4fde98ee17ae345cb5f6b5e2c27f5033e8ce7826040516116a491906124e3565b60405180910390a15050565b60007f80ac58cd000000000000000000000000000000000000000000000000000000007bffffffffffffffffffffffffffffffffffffffffffffffffffffffff1916827bffffffffffffffffffffffffffffffffffffffffffffffffffffffff1916148061177b57507f5b5e139f000000000000000000000000000000000000000000000000000000007bffffffffffffffffffffffffffffffffffffffffffffffffffffffff1916827bffffffffffffffffffffffffffffffffffffffffffffffffffffffff1916145b8061178b575061178a82611a52565b5b9050919050565b50505050565b50505050565b60006117bf8473ffffffffffffffffffffffffffffffffffffffff16611abc565b15611918578373ffffffffffffffffffffffffffffffffffffffff1663150b7a026117e8610cf7565b8786866040518563ffffffff1660e01b815260040161180a9493929190613530565b6020604051808303816000875af192505050801561184657506040513d601f19601f820116820180604052508101906118439190613591565b60015b6118c8573d8060008114611876576040519150601f19603f3d011682016040523d82523d6000602084013e61187b565b606091505b5060008151036118c0576040517f08c379a00000000000000000000000000000000000000000000000000000000081526004016118b79061314b565b60405180910390fd5b805181602001fd5b63150b7a0260e01b7bffffffffffffffffffffffffffffffffffffffffffffffffffffffff1916817bffffffffffffffffffffffffffffffffffffffffffffffffffffffff19161491505061191d565b600190505b949350505050565b606060405180602001604052806000815250905090565b606061194782610cac565b6000611951611925565b90506000815111611971576040518060200160405280600081525061199c565b8061197b84611adf565b60405160200161198c9291906131a7565b6040516020818303038152906040525b915050919050565b6119ad81611bad565b60006006600083815260200190815260200160002080546119cd9061288e565b9050146119f4576006600082815260200190815260200160002060006119f3919061206b565b5b50565b611a018383611cfb565b611a0e600084848461179e565b611a4d576040517f08c379a0000000000000000000000000000000000000000000000000000000008152600401611a449061314b565b60405180910390fd5b505050565b60007f01ffc9a7000000000000000000000000000000000000000000000000000000007bffffffffffffffffffffffffffffffffffffffffffffffffffffffff1916827bffffffffffffffffffffffffffffffffffffffffffffffffffffffff1916149050919050565b6000808273ffffffffffffffffffffffffffffffffffffffff163b119050919050565b606060006001611aee84611f18565b01905060008167ffffffffffffffff811115611b0d57611b0c612574565b5b6040519080825280601f01601f191660200182016040528015611b3f5781602001600182028036833780820191505090505b509050600082602001820190505b600115611ba2578080600190039150507f3031323334353637383961626364656600000000000000000000000000000000600a86061a8153600a8581611b9657611b956135be565b5b04945060008503611b4d575b819350505050919050565b6000611bb8826107a7565b9050611bc8816000846001611792565b611bd1826107a7565b90506004600083815260200190815260200160002060006101000a81549073ffffffffffffffffffffffffffffffffffffffff02191690556001600360008373ffffffffffffffffffffffffffffffffffffffff1673ffffffffffffffffffffffffffffffffffffffff168152602001908152602001600020600082825403925050819055506002600083815260200190815260200160002060006101000a81549073ffffffffffffffffffffffffffffffffffffffff021916905581600073ffffffffffffffffffffffffffffffffffffffff168273ffffffffffffffffffffffffffffffffffffffff167fddf252ad1be2c89b69c2b068fc378daa952ba7f163c4a11628f55a4df523b3ef60405160405180910390a4611cf7816000846001611798565b5050565b600073ffffffffffffffffffffffffffffffffffffffff168273ffffffffffffffffffffffffffffffffffffffff1603611d6a576040517f08c379a0000000000000000000000000000000000000000000000000000000008152600401611d6190613639565b60405180910390fd5b611d7381610db8565b15611db3576040517f08c379a0000000000000000000000000000000000000000000000000000000008152600401611daa906136a5565b60405180910390fd5b611dc1600083836001611792565b611dca81610db8565b15611e0a576040517f08c379a0000000000000000000000000000000000000000000000000000000008152600401611e01906136a5565b60405180910390fd5b6001600360008473ffffffffffffffffffffffffffffffffffffffff1673ffffffffffffffffffffffffffffffffffffffff16815260200190815260200160002060008282540192505081905550816002600083815260200190815260200160002060006101000a81548173ffffffffffffffffffffffffffffffffffffffff021916908373ffffffffffffffffffffffffffffffffffffffff160217905550808273ffffffffffffffffffffffffffffffffffffffff16600073ffffffffffffffffffffffffffffffffffffffff167fddf252ad1be2c89b69c2b068fc378daa952ba7f163c4a11628f55a4df523b3ef60405160405180910390a4611f14600083836001611798565b5050565b600080600090507a184f03e93ff9f4daa797ed6e38ed64bf6a1f0100000000000000008310611f76577a184f03e93ff9f4daa797ed6e38ed64bf6a1f0100000000000000008381611f6c57611f6b6135be565b5b0492506040810190505b6d04ee2d6d415b85acef81000000008310611fb3576d04ee2d6d415b85acef81000000008381611fa957611fa86135be565b5b0492506020810190505b662386f26fc100008310611fe257662386f26fc100008381611fd857611fd76135be565b5b0492506010810190505b6305f5e100831061200b576305f5e1008381612001576120006135be565b5b0492506008810190505b6127108310612030576127108381612026576120256135be565b5b0492506004810190505b606483106120535760648381612049576120486135be565b5b0492506002810190505b600a8310612062576001810190505b80915050919050565b5080546120779061288e565b6000825580601f1061208957506120a8565b601f0160209004906000526020600020908101906120a791906120ab565b5b50565b5b808211156120c45760008160009055506001016120ac565b5090565b6000604051905090565b600080fd5b600080fd5b60007fffffffff0000000000000000000000000000000000000000000000000000000082169050919050565b612111816120dc565b811461211c57600080fd5b50565b60008135905061212e81612108565b92915050565b60006020828403121561214a576121496120d2565b5b60006121588482850161211f565b91505092915050565b60008115159050919050565b61217681612161565b82525050565b6000602082019050612191600083018461216d565b92915050565b600081519050919050565b600082825260208201905092915050565b60005b838110156121d15780820151818401526020810190506121b6565b60008484015250505050565b6000601f19601f8301169050919050565b60006121f982612197565b61220381856121a2565b93506122138185602086016121b3565b61221c816121dd565b840191505092915050565b6000602082019050818103600083015261224181846121ee565b905092915050565b6000819050919050565b61225c81612249565b811461226757600080fd5b50565b60008135905061227981612253565b92915050565b600060208284031215612295576122946120d2565b5b60006122a38482850161226a565b91505092915050565b600073ffffffffffffffffffffffffffffffffffffffff82169050919050565b60006122d7826122ac565b9050919050565b6122e7816122cc565b82525050565b600060208201905061230260008301846122de565b92915050565b612311816122cc565b811461231c57600080fd5b50565b60008135905061232e81612308565b92915050565b6000806040838503121561234b5761234a6120d2565b5b60006123598582860161231f565b925050602061236a8582860161226a565b9150509250929050565b60006020828403121561238a576123896120d2565b5b60006123988482850161231f565b91505092915050565b600081519050919050565b600082825260208201905092915050565b6000819050602082019050919050565b6123d681612249565b82525050565b60006123e883836123cd565b60208301905092915050565b6000602082019050919050565b600061240c826123a1565b61241681856123ac565b9350612421836123bd565b8060005b8381101561245257815161243988826123dc565b9750612444836123f4565b925050600181019050612425565b5085935050505092915050565b600060208201905081810360008301526124798184612401565b905092915050565b60008060006060848603121561249a576124996120d2565b5b60006124a88682870161231f565b93505060206124b98682870161231f565b92505060406124ca8682870161226a565b9150509250925092565b6124dd81612249565b82525050565b60006020820190506124f860008301846124d4565b92915050565b61250781612161565b811461251257600080fd5b50565b600081359050612524816124fe565b92915050565b60008060408385031215612541576125406120d2565b5b600061254f8582860161231f565b925050602061256085828601612515565b9150509250929050565b600080fd5b600080fd5b7f4e487b7100000000000000000000000000000000000000000000000000000000600052604160045260246000fd5b6125ac826121dd565b810181811067ffffffffffffffff821117156125cb576125ca612574565b5b80604052505050565b60006125de6120c8565b90506125ea82826125a3565b919050565b600067ffffffffffffffff82111561260a57612609612574565b5b612613826121dd565b9050602081019050919050565b82818337600083830152505050565b600061264261263d846125ef565b6125d4565b90508281526020810184848401111561265e5761265d61256f565b5b612669848285612620565b509392505050565b600082601f8301126126865761268561256a565b5b813561269684826020860161262f565b91505092915050565b600080600080608085870312156126b9576126b86120d2565b5b60006126c78782880161231f565b94505060206126d88782880161231f565b93505060406126e98782880161226a565b925050606085013567ffffffffffffffff81111561270a576127096120d7565b5b61271687828801612671565b91505092959194509250565b600067ffffffffffffffff82111561273d5761273c612574565b5b612746826121dd565b9050602081019050919050565b600061276661276184612722565b6125d4565b9050828152602081018484840111156127825761278161256f565b5b61278d848285612620565b509392505050565b600082601f8301126127aa576127a961256a565b5b81356127ba848260208601612753565b91505092915050565b600080604083850312156127da576127d96120d2565b5b60006127e88582860161231f565b925050602083013567ffffffffffffffff811115612809576128086120d7565b5b61281585828601612795565b9150509250929050565b60008060408385031215612836576128356120d2565b5b60006128448582860161231f565b92505060206128558582860161231f565b9150509250929050565b7f4e487b7100000000000000000000000000000000000000000000000000000000600052602260045260246000fd5b600060028204905060018216806128a657607f821691505b6020821081036128b9576128b861285f565b5b50919050565b7f4552433732313a20617070726f76616c20746f2063757272656e74206f776e6560008201527f7200000000000000000000000000000000000000000000000000000000000000602082015250565b600061291b6021836121a2565b9150612926826128bf565b604082019050919050565b6000602082019050818103600083015261294a8161290e565b9050919050565b7f4552433732313a20617070726f76652063616c6c6572206973206e6f7420746f60008201527f6b656e206f776e6572206f7220617070726f76656420666f7220616c6c000000602082015250565b60006129ad603d836121a2565b91506129b882612951565b604082019050919050565b600060208201905081810360008301526129dc816129a0565b9050919050565b7f4e487b7100000000000000000000000000000000000000000000000000000000600052603260045260246000fd5b7f4e487b7100000000000000000000000000000000000000000000000000000000600052601160045260246000fd5b6000612a4c82612249565b91507fffffffffffffffffffffffffffffffffffffffffffffffffffffffffffffffff8203612a7e57612a7d612a12565b5b600182019050919050565b600067ffffffffffffffff821115612aa457612aa3612574565b5b602082029050602081019050919050565b600080fd5b600081519050612ac981612253565b92915050565b6000612ae2612add84612a89565b6125d4565b90508083825260208201905060208402830185811115612b0557612b04612ab5565b5b835b81811015612b2e5780612b1a8882612aba565b845260208401935050602081019050612b07565b5050509392505050565b600082601f830112612b4d57612b4c61256a565b5b8151612b5d848260208601612acf565b91505092915050565b600060208284031215612b7c57612b7b6120d2565b5b600082015167ffffffffffffffff811115612b9a57612b996120d7565b5b612ba684828501612b38565b91505092915050565b7f4552433732313a2063616c6c6572206973206e6f7420746f6b656e206f776e6560008201527f72206f7220617070726f76656400000000000000000000000000000000000000602082015250565b6000612c0b602d836121a2565b9150612c1682612baf565b604082019050919050565b60006020820190508181036000830152612c3a81612bfe565b9050919050565b7f4552433732313a20696e76616c696420746f6b656e2049440000000000000000600082015250565b6000612c776018836121a2565b9150612c8282612c41565b602082019050919050565b60006020820190508181036000830152612ca681612c6a565b9050919050565b7f4552433732313a2061646472657373207a65726f206973206e6f74206120766160008201527f6c6964206f776e65720000000000000000000000000000000000000000000000602082015250565b6000612d096029836121a2565b9150612d1482612cad565b604082019050919050565b60006020820190508181036000830152612d3881612cfc565b9050919050565b6000612d4a82612249565b9150612d5583612249565b9250828203905081811115612d6d57612d6c612a12565b5b92915050565b7f546f6b656e20746964616b20646974656d756b616e0000000000000000000000600082015250565b6000612da96015836121a2565b9150612db482612d73565b602082019050919050565b60006020820190508181036000830152612dd881612d9c565b9050919050565b7f42756b616e2070656d696c696b2061746175206469736574756a756900000000600082015250565b6000612e15601c836121a2565b9150612e2082612ddf565b602082019050919050565b60006020820190508181036000830152612e4481612e08565b9050919050565b7f4f776e61626c653a206e6577206f776e657220697320746865207a65726f206160008201527f6464726573730000000000000000000000000000000000000000000000000000602082015250565b6000612ea76026836121a2565b9150612eb282612e4b565b604082019050919050565b60006020820190508181036000830152612ed681612e9a565b9050919050565b7f4552433732313a207472616e736665722066726f6d20696e636f72726563742060008201527f6f776e6572000000000000000000000000000000000000000000000000000000602082015250565b6000612f396025836121a2565b9150612f4482612edd565b604082019050919050565b60006020820190508181036000830152612f6881612f2c565b9050919050565b7f4552433732313a207472616e7366657220746f20746865207a65726f2061646460008201527f7265737300000000000000000000000000000000000000000000000000000000602082015250565b6000612fcb6024836121a2565b9150612fd682612f6f565b604082019050919050565b60006020820190508181036000830152612ffa81612fbe565b9050919050565b7f4f776e61626c653a2063616c6c6572206973206e6f7420746865206f776e6572600082015250565b60006130376020836121a2565b915061304282613001565b602082019050919050565b600060208201905081810360008301526130668161302a565b9050919050565b7f4552433732313a20617070726f766520746f2063616c6c657200000000000000600082015250565b60006130a36019836121a2565b91506130ae8261306d565b602082019050919050565b600060208201905081810360008301526130d281613096565b9050919050565b7f4552433732313a207472616e7366657220746f206e6f6e20455243373231526560008201527f63656976657220696d706c656d656e7465720000000000000000000000000000602082015250565b60006131356032836121a2565b9150613140826130d9565b604082019050919050565b6000602082019050818103600083015261316481613128565b9050919050565b600081905092915050565b600061318182612197565b61318b818561316b565b935061319b8185602086016121b3565b80840191505092915050565b60006131b38285613176565b91506131bf8284613176565b91508190509392505050565b7f45524337323155524953746f726167653a2055524920736574206f66206e6f6e60008201527f6578697374656e7420746f6b656e000000000000000000000000000000000000602082015250565b6000613227602e836121a2565b9150613232826131cb565b604082019050919050565b600060208201905081810360008301526132568161321a565b9050919050565b60008190508160005260206000209050919050565b60006020601f8301049050919050565b600082821b905092915050565b6000600883026132bf7fffffffffffffffffffffffffffffffffffffffffffffffffffffffffffffffff82613282565b6132c98683613282565b95508019841693508086168417925050509392505050565b6000819050919050565b60006133066133016132fc84612249565b6132e1565b612249565b9050919050565b6000819050919050565b613320836132eb565b61333461332c8261330d565b84845461328f565b825550505050565b600090565b61334961333c565b613354818484613317565b505050565b5b818110156133785761336d600082613341565b60018101905061335a565b5050565b601f8211156133bd5761338e8161325d565b61339784613272565b810160208510156133a6578190505b6133ba6133b285613272565b830182613359565b50505b505050565b600082821c905092915050565b60006133e0600019846008026133c2565b1980831691505092915050565b60006133f983836133cf565b9150826002028217905092915050565b61341282612197565b67ffffffffffffffff81111561342b5761342a612574565b5b613435825461288e565b61344082828561337c565b600060209050601f8311600181146134735760008415613461578287015190505b61346b85826133ed565b8655506134d3565b601f1984166134818661325d565b60005b828110156134a957848901518255600182019150602085019450602081019050613484565b868310156134c657848901516134c2601f8916826133cf565b8355505b6001600288020188555050505b505050505050565b600081519050919050565b600082825260208201905092915050565b6000613502826134db565b61350c81856134e6565b935061351c8185602086016121b3565b613525816121dd565b840191505092915050565b600060808201905061354560008301876122de565b61355260208301866122de565b61355f60408301856124d4565b818103606083015261357181846134f7565b905095945050505050565b60008151905061358b81612108565b92915050565b6000602082840312156135a7576135a66120d2565b5b60006135b58482850161357c565b91505092915050565b7f4e487b7100000000000000000000000000000000000000000000000000000000600052601260045260246000fd5b7f4552433732313a206d696e7420746f20746865207a65726f2061646472657373600082015250565b60006136236020836121a2565b915061362e826135ed565b602082019050919050565b6000602082019050818103600083015261365281613616565b9050919050565b7f4552433732313a20746f6b656e20616c7265616479206d696e74656400000000600082015250565b600061368f601c836121a2565b915061369a82613659565b602082019050919050565b600060208201905081810360008301526136be81613682565b905091905056fea264697066735822122073cb8bcf30541a57b52f5a40eb8f618c63d78f70237b2c5c7600bd4aaab950fb64736f6c634300081c0033",
  "linkReferences": {},
  "deployedLinkReferences": {}
}